:020000040800F2
:1000000000500020311800080110000805100008F9
:10001000091000080D100008111000080000000071
:1000200000000000000000000000000015100008A3
:1000300019100008000000001D1000082110000821
:10004000791800087918000879180008791800084C
:10005000791800087918000879180008791800083C
:10006000791800087918000879180008791800082C
:10007000791800087918000879180008390B000869
:10008000791800087918000879180008791800080C
:1000900079180008791800087918000879180008FC
:1000A00079180008791800087918000879180008EC
:1000B000A90B000879180008E10B0008791800085E
:1000C00079180008791800087918000879180008CC
:1000D00079180008810B00087918000879180008C1
:1000E0007918000879180008791800080000000045
:1000F0000000000000000000000000000000000000
:0C01000000000000000000005FF808F1A3
:10010C0010F8012B11F8013B012A28BF9A42F7D0B5
:10011C00D01A7047034613F8012B002AFBD1181A8A
:10012C00013870470348044B834202D0034B03B1A0
:10013C00184770477000002070000020000000007D
:10014C0005480649091A891001EBD171491002D0F2
:10015C00034B03B11847704770000020700000205B
:10016C000000000010B5064C237843B9FFF7DAFF06
:10017C00044B13B10448AFF300800123237010BD6E
:10018C0070000020000000003021000808B5054B6D
:10019C001BB105490548AFF30080BDE80840FFF7E7
:1001AC00CFBF00BF00000000740000203021000809
:1001BC00224B2DE9F0415C68214EA4B23368C4F1A6
:1001CC004004A3421FD027D3402B0FD00025DFF8CB
:1001DC0078801C4F3B445B5D013588F8003000F0A3
:1001EC003DFD3368C3F14002AA42F3D86CB100253F
:1001FC00DFF85480134F3B78013588F8003000F05D
:10020C002DFDA542F7D1402C02D03460BDE8F08121
:10021C0000233360BDE8F0810025DFF82C80094F06
:10022C003B445B5D013588F8003000F017FD336806
:10023C00E21AAA42F4D8402CE7D1E9E75800024070
:10024C00AC000020BC0000204A01002010B5044680
:10025C00FFF760FF20448442074A07D014F8013BA3
:10026C00536013681906FCD58442F7D1024A13680F
:10027C005B06FCD510BD00BF0038014040F60D23D5
:10028C0010B582B00446ADF80430FFF743FF2044AC
:10029C0084420F4A07D014F8013B536013681B06C5
:1002AC00FCD58442F7D10A4C23685806FCD501A82A
:1002BC00FFF730FF28B10D23054A63601368190658
:1002CC00FCD5034A13685B06FCD502B010BD00BF19
:1002DC0000380140F0B46426294B2A491A682A4B8D
:1002EC00A1FB0205A3FB020328486F09A0FB020235
:1002FC002748A1FB074500885C0BA1FB041300EB0E
:10030C00924224486D09A0FB021006FB15755B098F
:10031C0006FB134320490009EDB200EB4000A1FBA2
:10032C00054CA2EBC000C2B2DBB2A1FB0206A1FBE2
:10033C0003011A484FEADC0C077819480CEB8C04C3
:10034C000570A5EB4404174D1748C9082B70F60827
:10035C00E4B201EB810507EAC4174471A3EB450332
:10036C0006EB8604114DA2EB440480F804C087719F
:10037C00067044708170C3702A70F0BC704700BF67
:10038C004C0100201F85EB515917B7D183DE1B435D
:10039C00B8000020ABAAAAAACDCCCCCC500100202E
:1003AC00B0000020A500002094000020A400002034
:1003BC0070B5734C2378052B07D8DFE813F03100A8
:1003CC00540077009A00BD0009000023237070BD13
:1003DC006C4D6D4E6A79AB79B15C6C48194081F407
:1003EC007F41002281F0FF0101F06CF800223B21DB
:1003FC00674801F067F82278AB79A95C6348715CB7
:10040C000122194301F05EF801224021604801F0FD
:10041C0059F82378052BD8D80133DBB2237070BD83
:10042C00584D594E2A78AB79B15C5848194081F433
:10043C007F41002281F0FF0101F044F800227A2173
:10044C00534801F03FF82278AB79A95C4F48715CB6
:10045C000122194301F036F801224D48114601F0F2
:10046C0031F82378D6E7474D474E6A78AB79B15CC3
:10047C004648194081F47F41002281F0FF0101F0D0
:10048C0021F800227921424801F01CF82278AB793E
:10049C00A95C3E48715C0122194301F013F801225A
:1004AC0002213B4801F00EF82378B3E7354D364E68
:1004BC00AA78AB79B15C3548194081F47F410022B0
:1004CC0081F0FF0100F0FEFF00227321304800F0A4
:1004DC00F9FF2278AB79A95C2C48715C0122194395
:1004EC0000F0F0FF01220821294800F0EBFF2378EF
:1004FC0090E7244D244EEA78AB79B15C234819403F
:10050C0081F47F41002281F0FF0100F0DBFF00222B
:10051C006B211F4800F0D6FF2278AB79A95C1B48F1
:10052C00715C0122194300F0CDFF01221021184803
:10053C0000F0C8FF23786DE7124D134E2A79AB7982
:10054C00B15C1248194081F47F41002281F0FF0117
:10055C0000F0B8FF00225B210D4800F0B3FF2278B9
:10056C00AB79A95C0948715C0122194300F0AAFF20
:10057C0001222021064800F0A5FF23784AE700BF9E
:10058C009B0000209400002070210008000801400E
:10059C00000C01400920F0B500240326514B8FB00C
:1005AC009A69514D42F480429A619A6903A902F406
:1005BC0080420292029A5A690C2742F001025A6157
:1005CC005A6902F001020192019A9A6942F00402FE
:1005DC009A619B69049003F0040300934348009BC9
:1005EC00CDE90564039500F0DDFF0422404B03A91F
:1005FC003E48CDE9033200F0D5FF3E4B4FF40040AE
:10060C001A684FF4E13122F4804222F010021A6091
:10061C001A68394D22F440521A601A68374E42F06B
:10062C0020021A601A6822F040021A601A6842F01E
:10063C0080021A601A6822F440721A601A6822F456
:10064C0040621A602E4A9D60DA605A68043D120CB2
:10065C00120442F040025A601A6842F004021A6016
:10066C001A6842F002021A60264BF26883F80F43B4
:10067C0018600891284608A9CDE909440B940D94FB
:10068C000C9701F05DF82B6923F490432B616B6997
:10069C0023F02A036B616B6943F040036B61EB68D9
:1006AC0043F01003EB60F368C3F302231A1D062A10
:1006BC0007D94FF0FF34033B9C40E44304F00104A2
:1006CC00240120220F4B0B4983F825435A600B68F9
:1006DC000D4A43F001030B60D36843F40053D3601D
:1006EC000FB0F0BD001002400200020400080140EF
:1006FC0004000404580002400438014000ED00E0FE
:10070C00BC00002000E100E00038014000242DE98D
:10071C00804891B000F0C4FDCDE90B44CDE90D4407
:10072C00A54D2246AB69FF2143F00403AB61AB69D5
:10073C00A24843F00803AB61AB69012643F02003E8
:10074C00AB6100F0BFFE0327FF230BA99B48CDE94B
:10075C000B360D940E9700F0C1FD22467B21974875
:10076C0000F0B0FE7B230BA99548CDE90C640E97E5
:10077C000B9300F0B3FD80230BA99148CDE90C46F7
:10078C000B93482600F0AAFD4FF080424FF08057A3
:10079C005021EB698B4843F00103EB619462D66204
:1007AC00136843F004031360D36843F00103D36070
:1007BC00536943F001035361136843F00103136061
:1007CC00076080F81C13EB697F4943F00403EB616D
:1007DC008C62CE620B684FF6FF0643F004030B608D
:1007EC00CF687A4B47F00107CF604F6947F001079C
:1007FC004F61026080F81E43A969754A41F00101FE
:10080C00A961A96901F0010105910599E96941F016
:10081C008051E961E96901F0805106910699A96955
:10082C0041F02001A961A96901F020010791079904
:10083C00D96831400A43DA60DA681C76DA685C768B
:10084C00DA689C76DA68DC77DA6883F82040DA6854
:10085C0083F82240DB68C3F30223C3F10702191D9E
:10086C00042A28BF0422062988BFDC1E4FF0FF3360
:10087C009340DB43A3401B015449564ADBB281F839
:10088C002330136823F0070343F00203136013684B
:10089C0003F00703022B00D0FEE7474B1A461968FA
:1008AC0041F48031196013689903FCD55168424BAF
:1008BC0021F47C1141F4E8115160116841F0807110
:1008CC0011601A689201FCD55A683B4922F0F0027B
:1008DC005A605A6822F4E06242F480625A605A68A4
:1008EC0022F460525A605A6822F0030242F002026B
:1008FC005A604B6803F00C03082BFAD1364800F011
:10090C0079FF364A34481368354D43F004031360BD
:10091C0000F082FF00F0DCFC4FF47A73B0FBF3F0D4
:10092C0000F01CFE042000F031FE00224FF0FF30DE
:10093C00114600F0DDFDFFF72DFE2A48FFF786FC7F
:10094C00294A2A4912882A4B0A801B88294A2A4E8E
:10095C00DFF8B0A0DFF8B090284FDFF8B080284C5B
:10096C00DFF8ACB013702A683368A4FB0212C3EB37
:10097C009213322B00F286808021114800F09CFDEE
:10098C00002847D13B788BB901222B683A70A4FB25
:10099C0003239B09C8F800302A68A4FB0212C3EB9E
:1009AC009213322BDFD902233B70DCE7012BDAD117
:1009BC00D8F80030F0E700BF0010024000080140FA
:1009CC00000C014000E100E00008004000ED00E0F8
:1009DC000003FA050020024000A24A0410E000E0E7
:1009EC00B40000204821000800D00008B800002006
:1009FC0000C0000850010020A00000208C00002046
:100A0C00D34D6210A5000020A4000020900000200F
:100A1C006821000880213A4800F04EFD0128034669
:100A2C00A1D13A78022A9ED12968D8F80020A4FBDB
:100A3C000101C2EB9112B2F57A7F48D8314B324AA0
:100A4C001B8801339BB2172B88BF0023138000F047
:100A5C0035FB2C4800F0CCFB2C4A012013692949AA
:100A6C0023F002031361284B1A88002300F070FB5B
:100A7C00264A136923F00103136100F033FB0023B2
:100A8C003B7070E7FFF726FC214B22491A780BA824
:100A9C009AF80030009299F8002000F00DFF1E4BE0
:100AAC0059461A6808A800F007FF0BA8FFF7CEFB01
:100ABC001A48FFF7CBFB08A8FFF7C8FB1848FFF74D
:100ACC00DDFB2B68A4FB03239B09336054E715491A
:100ADC0003930A78144BD2431A7000F0EFFA1149C1
:100AEC00084600F085FB094B0E491A6922F00202F8
:100AFC001A61039B18460C4B1A780023B6E700BF0B
:100B0C00000C014000D00008B8000020002002407A
:100B1C00B00000205C2100084C0100206C21000872
:100B2C006421000800C000085001002008B50F4BDC
:100B3C001B685B0703D50E4B1A6850030FD40B4B85
:100B4C001B68990703D50A4B1A68920300D408BD99
:100B5C004FF400325A60BDE80840FFF729BB4FF450
:100B6C0080225A60FFF724FBE9E700BF58000240DF
:100B7C0000000240084BDA68D10602D51A68D2068A
:100B8C0000D470471A6882B00192019A5B68019395
:100B9C00019B02B0FFF70CBB0038014010B50B4CA9
:100BAC000B4A2368013323601368013313602368F5
:100BBC00642B06D84FF08042136923F001031361B4
:100BCC0010BDFFF7F5FB00232360F3E79C0000202A
:100BDC00B40000200449054A0B6801330B6013690B
:100BEC0023F0010313617047A800002000080040A7
:100BFC0019490A786AB3F0B40026054633463046E4
:100C0C00374613B90C782D2C1DD02E2A15D0CC5C60
:100C1C0000EB8000A4F13002092A4FEA40009CBF8F
:100C2C00A0F13002A0180E2B10D80133CA5C002A98
:100C3C00E7D106B14042F0BC70470133002DF8D02B
:100C4C00CA185755E3E701231E46EFE70020F0BC16
:100C5C0070470020704700BF2C0100202DE9F8439D
:100C6C00A14B1C78A4F10A03222B57D8DFE803F020
:100C7C003B56563B5656565656565656565656563E
:100C8C00565656565656565656563256565656561C
:100C9C00125612004FF00009944FDFF860823B7837
:100CAC00934E98F8005006F80390002D48D0914BC5
:100CBC001B78022B00F09880032B76D1022D00F0CC
:100CCC00E280032D40F0BB804846FFF791FF8A4B32
:100CDC0018705DE0002389488449894A03700B70C1
:100CEC001370BDE8F88387490B789BB1804E33783D
:100CFC00402B75D9373B1B01DBB272788048402AF8
:100D0C008CBF373A303AD2B213440278DBB29A42F3
:100D1C0000F0828000230B70BDE8F883734A1378CF
:100D2C000E2B03D87248591CC4541170754B1B7888
:100D3C00002BD6D1724B1A7854401C70BDE8F88346
:100D4C00DFF8B0917049304689F80050FFF7D8F9B8
:100D5C00D8B16E493046FFF7D3F9B0B16C49304683
:100D6C00FFF7CEF9002800F019816A493046FFF7E9
:100D7C00C7F9002800F0128130466749FFF7C0F927
:100D8C0030B9032389F8003002E0012389F80030E0
:100D9C00002301352A2C88F800503B701CD0584A8F
:100DAC0013785C401470BDE8F883012BF0D1EB1E76
:100DBC00062BEDD801A252F823F000BF850F0008D6
:100DCC009D0D00085D0F00084D0F0008E90E00088E
:100DDC006F0F0008970F000801224A4B1A7080E72A
:100DEC001B0103F0F00388E76B1E082BD0D801A27F
:100DFC0052F823F0D30E00089D0D00089D0D00083D
:100E0C009D0D00089D0D00089D0D0008B70E0008F3
:100E1C00AB0E00089F0E00084048364A0368127853
:100E2C000133012A036000F0BD80022A7FF472AF07
:100E3C003B4A3C4B108A928A9881DA816AE7A7D99F
:100E4C00394A2B1F1678C3F3870303EB8606FD364E
:100E5C00F6B2102E9CD8EA1EA2EB830303F0FF031C
:100E6C00012B00F0B180042B08D14846FFF7C0FEDF
:100E7C002E4A2F4B013E905503F806902D4A1368CD
:100E8C000133136084E74846FFF7B2FE264B187017
:100E9C007EE70020FFF7ACFE214BD86178E70120FC
:100EAC00FFF7A6FE1E4B988272E70120FFF7A0FE0B
:100EBC0041F2184303FB00F31F49194AA1FB03132A
:100ECC009B09138264E70220FFF792FE144B986192
:100EDC000220FFF78DFE194B186059E70020FFF731
:100EEC0087FE0F4B187253E74A010020290100209E
:100EFC002C010020280100209C0100202A01002048
:100F0C002B010020040100207C2100088421000812
:100F1C008C210008942100089C210008FC00002072
:100F2C0008010020680100203B010020A0010020E6
:100F3C008C01002000010020D34D62104C010020D8
:100F4C003378302B8CBF01220022254B1A701FE7FF
:100F5C003378572B7FF41CAF224A53685B425360A3
:100F6C0016E70120FFF744FE00EB800000EB800049
:100F7C001C4A830053820BE73378532B7FF408AF62
:100F8C00184A13685B42136002E70120FFF730FE3A
:100F9C00144A00EB80004000D060F9E6022389F887
:100FAC000030F5E60E4B1B78002B3FF4B3AE0E4B26
:100FBC000C4AD2E90005147A1860D068528A5D6038
:100FCC009C7498601A82A5E6084B484606F1FF39D6
:100FDC0003F80960FFF70CFE054B03F809004DE719
:100FEC006401002008010020680100205401002049
:100FFC007C010020704700BFFEE700BFFEE700BF8A
:10100C00FEE700BFFEE700BF704700BF704700BFA0
:10101C00704700BF704700BF30B44FF41F054FF04E
:10102C0000640E4B0E4A19680E4841F0010119601C
:10103C0059680A405A601A6822F0847222F480328D
:10104C001A601A6822F480221A605A6822F4FE028E
:10105C005A609D60846030BC704700BF0010024035
:10106C000000FFF800ED00E0124BDB6813F01003FA
:10107C0005D010231049CA6942F00202CA610D4A18
:10108C00D268500706D50C4943F00403CA6942F0F4
:10109C000102CA61074AD169C90708D50648C16966
:1010AC0041F00401C161D16921F00101D161014A12
:1010BC00D360704700200240B0010020064B186935
:1010CC0010F0800006D00549054A59605A6018692D
:1010DC00C0F3C010704700BF0020024023016745D9
:1010EC00AB89EFCD034A0020136943F080031361F1
:1010FC00704700BF0020024070B5054600F0E2F8D2
:10110C00124C064601E06A1C17D1E368DB07FAD4DF
:10111C00E368980644BF2023E3600C4BDA68D106E1
:10112C0007D4DA69D20704D4D86810F0040000D1CF
:10113C0070BDFFF799FF012070BD25B100F0C2F81A
:10114C00801BA842E1D9032070BD00BF00200240E3
:10115C002DE9F84F244E0746307E012840D01D461D
:10116C0001234CF250308A4690463376FFF7C4FF89
:10117C0090BB012F03D0022F0CBF022704270024A1
:10118C00A146DFF868B00AEB4707C4F12002C6F8A5
:10119C001C9005FA02F228FA04F3A4F1200113437F
:1011AC0025FA01F1DBF810200B439BB242F001024F
:1011BC00CBF810204CF25030AAF80030FFF79CFF0F
:1011CC00DBF810300AF1020A23F001031034CBF8DB
:1011DC00103008B9BA45D8D100233376BDE8F88F62
:1011EC000220BDE8F88F00BFB001002000200240B3
:1011FC000021064A064BD1611A6942F002021A61BB
:10120C0058611A6942F040021A617047B00100201F
:10121C00002002400E4B82B09A690E4942F0010246
:10122C009A619A6902F001020092009ADA6942F01E
:10123C008052DA61DB6903F080530193019B4B68A8
:10124C0023F0E06343F000734B6002B0704700BFC3
:10125C00001002400000014038B54FF47A730D497C
:10126C000D4A09781268B3FBF1F30546B2FBF3F0B3
:10127C0000F074F908B90F2D01D9012038BD0446CE
:10128C00024629464FF0FF3000F032F9034B20465E
:10129C001D6038BD04000020000000200800002064
:1012AC00074A08B51368032043F01003136000F0DD
:1012BC000DF90020FFF7D0FFFFF7ACFF002008BDB1
:1012CC0000200240014B1868704700BFD00100207D
:1012DC00014B1868704700BF000000202DE9F04F4B
:1012EC004FF0000883B043466A4EDFF8BCE1DFF8EC
:1012FC00BCC102E00133102B7DD001220C689A4056
:10130C0002EA0405AA42F5D14C68122C00F0A9801F
:10131C0000F28180022C00F0A0806FD9032C00F029
:10132C009980112C02D1CA6802F10408FF2D6CD8E7
:10133C00824602689C004FF00F0909FA04FB22EA6E
:10134C000B0208FA04F42243CAF80020D1F804A0D6
:10135C001AF0805FCED0504F23F00304BA6904F129
:10136C00804442F00102BA61BA6904F5803402F09B
:10137C000102019203F0030B019A4FEA8B0BA26856
:10138C00A7F5843709FA0BF9B84222EA090211D001
:10139C0007F58067B84268D0404FB84273D0404FD1
:1013AC00B8420CBF4FF003094FF0040909FA0BFBCC
:1013BC0042EA0B02A26032681AF4803F14BF2A433F
:1013CC00AA43326072681AF4003F14BF2A43AA433E
:1013DC007260B2681AF4801F14BF2A43AA43B26029
:1013EC00F4681AF4001F03F1010314BF2C43AC433F
:1013FC00102BF46081D103B0BDE8F08FC4B1012C87
:10140C0094D1FF2DD1F80C8092D99C004268203CDD
:10141C0000F1040A8FE774450AD00ED9644507D051
:10142C00204FBC4204D0DFF888904C457FF47EAF4F
:10143C008C680CBB4FF0040878E7DFF878904C45CB
:10144C00F6D009F580394C457FF470AF8C68002CD0
:10145C00F0D011E04FF0000868E7CA6802F1080804
:10146C0064E7CA6802F10C0860E74FF0010909FA59
:10147C000BFB42EA0B029DE7012C0CBF026142619F
:10148C004FF0080852E74FF0020909FA0BFB42EA49
:10149C000B028FE7000401400010024000100140D5
:1014AC000014014000003210000021100000311027
:1014BC0000002210000011108368194214BF012093
:1014CC000020704702B90904016170474FF6FF0113
:1014DC00064A0002D36800F4E0600B40184340F069
:1014EC00BF6040F40030D060704700BF00ED00E0FA
:1014FC00184B30B4DC68C4F30224C4F10705042D86
:10150C0004F1040328BF0425062B18D94FF0FF3330
:10151C00033CA34022EA03024FF0FF33AB4021EA25
:10152C000303A34013431B010028DBB20ADB00F1C9
:10153C00604000F5614080F8003330BC70470022F9
:10154C001446E9E7044A00F00F000244137630BC5D
:10155C00704700BF00ED00E0FCEC00E00138B0F19A
:10156C00807F0DD230B4F02500220721054B064CAC
:10157C00586084F82350104630BC9A60196070474C
:10158C000120704710E000E000ED00E0044A042860
:10159C0013680CBF43F0040323F00403136070477B
:1015AC0010E000E02DE9F04F0C68C4F30F2494FA1E
:1015BC00A4F3B3FA83F334FA03F276D04FF0010BB1
:1015CC004FF00F0C4FF0030E4FF004095EE040F2A9
:1015DC0001129A40160E92FAA2FABAFA8AFA92FA02
:1015EC00A2F8B8FA88F885594F684FEA8A0A0CFABB
:1015FC000AFA4FEA880807FA08F825EA0A0545EAC4
:10160C0008058551D0F80C80150A95FAA5FABAFA96
:10161C008AFA28EA05080F694D6807FA0AFA25F0D4
:10162C00080548EA0A08012DC0F80C802AD192FA64
:10163C00A2FABAFA8AFA92FAA2F8B8FA88F8855994
:10164C008F684FEA8A0A0EFA0AFA4FEA880825EAE6
:10165C000A0507FA08F845EA0805855192FAA2F836
:10166C00B8FA88F892FAA2F2B2FA82F2CF684FEA8C
:10167C008808920009FA08F825EA080507FA02F228
:10168C0015438551013334FA03F20ED00BFA03F2F1
:10169C002242F7D0072B9AD94FF00115A3F108027B
:1016AC0005FA02F242F0806294E70120BDE8F08F67
:1016BC000A4B5A68D2030ED55B68094803F4003311
:1016CC000133B0FBF3F0054B5B68C3F38343023388
:1016DC0000FB03F070470348F5E700BF0010024021
:1016EC0000127A0000093D00114B10B55B680146F1
:1016FC0003F00C03082B18D00E480D4B08605A68E9
:10170C000D4CC2F30312A25C0C4CD04048605A68DA
:10171C00C2F30222A25C20FA02F28A605B68C3F375
:10172C00C223E35CD840C86010BDFFF7C1FFE4E7FB
:10173C000010024000127A00A4210008B421000815
:10174C00C3689B0401D50020704730B504460D4694
:10175C00C2684B6822F4B052D1E90301034322F072
:10176C000C020B431343E3602369AA6823F4405330
:10177C001343236163696A6923F44073134385B08F
:10178C0063616846FFF7B0FF164B9C4227D0164B9F
:10179C009C4205D0154B9C4202D0002005B030BDB8
:1017AC00029B002BF9D02A68002AF6D003EB8303A6
:1017BC00920003EB8303B3FBF2F364250C49012085
:1017CC00A1FB03C2520905FB12331B013233A1FBEF
:1017DC000331130103EB51139BB2A360DEE7039BB0
:1017EC00DFE700BF003801400044004000480040E3
:1017FC001F85EB510021052210B4054C054BA4FBB1
:10180C00004080090138586010BC99601A6070471C
:10181C00D34D621010E000E0014B1860704700BF20
:10182C0000000020002103E00B4B5B5843500431B7
:10183C000A480B4B42189A42F6D30A4A02E000239C
:10184C0042F8043B084B9A42F9D3FFF7E5FB00F052
:10185C000FF8FEF75BFF7047F8210008000000202E
:10186C007000002070000020E4010020FEE7000062
:10187C0070B500260C4D0D4C641BA410A64209D16A
:10188C0000F050FC00260A4D0A4C641BA410A64222
:10189C0005D170BD55F8043B98470136EEE755F875
:1018AC00043B98470136F2E7F0210008F0210008CC
:1018BC00F0210008F42100080EB46FF0004100B5CF
:1018CC009CB01DAB02900690079104910848094901
:1018DC0053F8042B0591006802A9019300F068F8F5
:1018EC000022029B1A701CB05DF804EB03B0704729
:1018FC000C0000200802FFFF2DE9F0478E6882469D
:10190C009E420C469146984638D8B1F80CC01CF44F
:10191C00906F31D062692568096902EB42026F1A37
:10192C0002EBD272013355103B449D4238BF1D4629
:10193C001CF4806F30D0294600F040FB064650B9AD
:10194C000C234FF0FF30CAF80030A38943F040035A
:10195C00A381BDE8F0873A46216900F0BBFAA38960
:10196C0023F4906343F08003A38126613E442660F8
:10197C0046466561ED1BA560464500D94646324694
:10198C004946206800F0B4FAA36800209B1BA360B2
:10199C0023681E442660DCE72A4600F069FB0646F5
:1019AC000028E2D12169504600F0BCFAC8E70000DB
:1019BC002DE9F04F1E468B899DB01B0607460D4640
:1019CC0014460ED50B6963B9402100F0F7FA286074
:1019DC00286120B90C233B604FF0FF30C9E0402355
:1019EC006B610023099320238DF8293030234FF0AD
:1019FC00010ADFF898918DF82A30039623461E468B
:101A0C0013F8012B0AB1252AF9D1B6EB040B0BD034
:101A1C005B46224629463846FFF76EFF013000F040
:101A2C00A380099B5B4409933378002B00F09C80C6
:101A3C0000234FF0FF32CDE90523013604930793C1
:101A4C008DF853301A933446052214F8011B4F4875
:101A5C0000F032FA049BC0B9D90644BF20228DF89D
:101A6C0053201A0744BF2B228DF8532032782A2A90
:101A7C0013D0344600200A26079A214611F8013B60
:101A8C00303B092B4BD970B914E0A0EB09000AFAD2
:101A9C0000F0184304902646D5E7039A111D1268EE
:101AAC000391002A01DB079204E0524243F0020347
:101ABC000792049323782E2B0CD163782A2B33D1E5
:101ACC00039B02341A1D1B680392002BB8BF4FF006
:101ADC00FF3305932E4E03222178304600F0ECF9AB
:101AEC0038B14023801B03FA00F0049B01340343FC
:101AFC00049314F8011B062226488DF8281000F0D8
:101B0C00DBF9002838D0244B13BB039B073323F09D
:101B1C00070308330393099B434409936EE706FBC1
:101B2C00023201200C46A8E700230A26194601348C
:101B3C000593204610F8012B303A092A03D9002BC3
:101B4C00C8D00591C6E706FB012101230446F0E746
:101B5C0003AB00932A46114B04A93846AFF300801F
:101B6C00B0F1FF3F8046D6D1AB895B063FF534AF71
:101B7C0009981DB0BDE8F08F03AB00932A46074BC4
:101B8C0004A9384600F082F8EAE700BFBC2100083F
:101B9C00C2210008C6210008000000000519000839
:101BAC002DE9F04791461F468A680B690646934219
:101BBC00B8BF1346C9F8003091F843200C46DDF845
:101BCC00208012B10133C9F800302368990642BF56
:101BDC00D9F800300233C9F80030256815F0060535
:101BEC0007D104F1190AE368D9F800209B1AAB421B
:101BFC0029DC94F843302268003318BF0123920685
:101C0C002ED404F1430239463046C047013021D06E
:101C1C002368E56803F00603042B18BF0025D9F8E8
:101C2C0000204FF0000908BFAD1AA368226908BF55
:101C3C0025EAE5759342C4BF9B1AED181A344D453D
:101C4C001AD1002008E00123524639463046C047DD
:101C5C00013003D14FF0FF30BDE8F0870135C2E70A
:101C6C003020E11881F843005A1C94F845102244A6
:101C7C00023382F84310C4E701232246394630462A
:101C8C00C0470130E6D009F10109D8E72DE9F0434E
:101C9C0006460C4601F14300097E85B06E29984634
:101CAC0017460C9B00F0BB8024D8632939D00AD886
:101CBC00002900F0C480582900F0928004F14205FC
:101CCC0084F8421035E0642901D06929F6D12568E1
:101CDC001A6815F0800F02F104012CD012681960FB
:101CEC00002A03DA2D23524284F84330DFF8C0C1B6
:101CFC000A233FE0732900F0A68008D86F2921D071
:101D0C007029DBD1226842F02002226003E07529A1
:101D1C0018D07829D2D17822DFF898C184F84520E0
:101D2C0062E01A6804F14205111D1960136884F809
:101D3C004230012394E0126815F0400F196018BF6F
:101D4C0012B2CDE7D4F800C01A681CF0800F02F173
:101D5C0004051D6001D0126803E01CF0400FFAD09E
:101D6C0012886F290CBF08230A23DFF844C1002115
:101D7C0084F843106568002DA8BF2168A560A4BF36
:101D8C0021F0040121600AB9002D46D00546B2FBB2
:101D9C00F3F103FB112E1CF80EE0934205F801ED54
:101DAC0039D9082B0BD12368DA0708D52369626867
:101DBC009A42DEBF302305F8013C05F1FF35401B8C
:101DCC002061CDF800803B4603AA21463046FFF740
:101DDC00E7FE013049D14FF0FF3005B0BDE8F0838C
:101DEC00DFF8CCC084F845101D68216855F8042B29
:101DFC001D600D060BD5CD0744BF41F020012160BD
:101E0C001AB9236823F0200323601023AFE74B0695
:101E1C0048BF92B2EFE70A46B9E70546C1E71A6830
:101E2C00D4F800C0151D61691CF0800F1D6013688B
:101E3C0001D0196003E01CF0400FFAD01980002388
:101E4C0005462361BDE71A68111D1960156800214C
:101E5C006268284600F030F808B1401B6060636887
:101E6C002361002384F84330ABE723692A463946C3
:101E7C003046C0470130AED023689B0713D4E068CE
:101E8C00039B9842B8BF1846A7E701234A46394638
:101E9C003046C04701309ED00135E368039A9B1A47
:101EAC00AB42F2DCEBE7002504F11909F5E700BFC2
:101EBC00CD210008DE21000810B5C9B202449042C1
:101ECC00034601D1002303E01C7801308C42F6D18B
:101EDC00184610BD0A44914200F1FF3300D17047FF
:101EEC0010B511F8014B914203F8014FF9D110BD17
:101EFC00884210B501EB020302D983421C4607D875
:101F0C00421E994208D011F8014B02F8014FF8E734
:101F1C0083189A1A9A4200D110BD14F8011D03F8C7
:101F2C00011DF7E738B50546002943D051F8043CAC
:101F3C000C1F002BB8BFE41800F0D0F81E4A136831
:101F4C00104633B9636014602846BDE8384000F091
:101F5C00CBB8A3420BD921686218934201BF1A680F
:101F6C005B685218226063600460EDE713465A68A0
:101F7C000AB1A242FAD919685818A0420BD12068AC
:101F8C000144581882421960DED11068526801442D
:101F9C0019605A60D8E702D90C232B60D4E720686B
:101FAC0021188A4201BF11685268091821606260C9
:101FBC005C60C9E738BD00BF3C010020F8B5CD1C02
:101FCC0025F0030508350C2D38BF0C25002D0646D1
:101FDC0001DBA94203D90C2333600020F8BD00F0CB
:101FEC007DF821490A6814469CB9204F3B6823B9F7
:101FFC002146304600F062F838602946304600F041
:10200C005DF8431C23D10C233046336000F06CF890
:10201C00E3E723685B1B17D40B2B03D923601C4409
:10202C00256004E06368A2420CBF0B60536030462D
:10203C0000F05AF804F10B00231D20F00700C21A1F
:10204C00CCD01B1AA350C9E722466468CCE7C41C49
:10205C0024F00304A042E3D0211A304600F02EF8FD
:10206C000130DDD1CFE700BF3C0100204001002052
:10207C00F8B5074614460E4621B91146BDE8F8409E
:10208C00FFF79CBF22B9FFF74DFF25462846F8BD48
:10209C0000F030F8A0420FD221463846FFF78EFFF1
:1020AC0005460028F2D031462246FFF713FF314691
:1020BC003846FFF737FFE9E73546E7E738B5002341
:1020CC00054C05460846236000F01EF8431C02D15F
:1020DC00236803B12B6038BDD4010020014800F007
:1020EC0011B800BFDC010020014800F00CB800BFA3
:1020FC00DC01002051F8043C181F002BBCBF0B580E
:10210C00C018704770477047044A05491368002B84
:10211C0008BF0B4618441060184670474401002055
:10212C00E8010020F8B500BFF8BC08BC9E4670471B
:0C213C00F8B500BFF8BC08BC9E46704718
:10214800555341525420496E697469616C697A65C6
:10215800640D0A0025643A25643A256400000000ED
:10216800256C6400202020003F065B4F666D7D07CC
:102178007F6F00004750474741000000474E4747E0
:10218800410000004750524D43000000474E524D59
:10219800430000004750475356000000000000006D
:1021A80000000000010203040607080900000000FF
:1021B80001020304232D302B2000686C4C00656657
:1021C8006745464700303132333435363738394180
:1021D8004243444546003031323334353637383996
:0821E80061626364656600009A
:0421F0009901000849
:0421F400710100086D
:1021F80000A24A04010000001000000010000020A6
:1022080000000000000000000000000000000000C6
:1022180000000000000000000000000000000000B6
:1022280000000000000000000000000000000000A6
:102238000000000000000000000000000000000096
:102248000000000000000000000000000000000086
:102258000000000000000000000000000000000076
:0400000508001831A6
:00000001FF
